:040AE00002250000EB
:100A2100120AA90526E526700205257FE87E031234
:100A31000A94750C03AB26AA257D017F01120A6178
:020A410080E152
:060ABD00C2A58F80D2A744
:080AC3007F027EEFDEFEDFFC86
:010ACB002208
:0A0ACC00C2A6120ABDC2A7020AC3A7
:100A4300CFCDCFCECCCE12083F7C007D0A12083F1B
:040A5300ED2430FF5F
:0A0A5700D2A6120ABDC2A7020AC30C
:100A7E00AE07BE0104ED148006BE0209ED243F440C
:060A8E0080FF120ACC22D9
:100AA9007F38120ACC7F0C120ACC7F06120ACC7F3F
:040AB90001020ACC60
:0A0AD600AC03120A7EAF04020A57B7
:0609FE008B228A238924EC
:100A0400120A7EE4FDAB22AA23A9248D82758300F9
:0C0A1400120800FF6006120A570D80E96E
:010A200022B3
:0C09CB007F0AEA24FFFDE434FFFC7E00FC
:0809D7008E0D8F0E8C0F8D10A8
:1009DF007F017E00E4FBEBC39510E50F6480F87494
:0E09EF008098500AAC0DAD0E12082D0B80E85A
:0109FD0022D7
:040A61008A0A8B0B67
:100A6500120A7EAA0CEAD39400400D1209CBAC0AF7
:080A7500AD0B120A431A80EDDB
:010A7D002256
:10092000120A7EC3EA64809480400B7F2B120A5720
:100930008A168B17800E7F2D120A57C3E49BF5177A
:10094000E49AF516AA15EAD39400400D1209CBAC2F
:0909500016AD17120A431A80EDDE
:01095900227B
:04095A008A1A8B1B4F
:10095E00120A7EAA1CEAD3940040297F101209CDF8
:10096E00AC1AAD1BCFCDCFCECCCE12083FEF540F6D
:10097E00FEC3940AEE5004243080022437FF120A7C
:04098E00571A80D1A3
:010992002242
:040993008A1F8B200C
:10099700120A7EAA21EAD394004028EA24FFFDE444
:1009A70034FFFC7F027E001209D7AC1FAD20CFCDEC
:1009B700CFCECCCE12083FEF54012430FF120A5796
:0309C7001A80D2C1
:0109CA00220A
:100A9400EF1FAC0670011E4C600A7D027CEFDCFE89
:040AA400DDFC80EC09
:010AA800222B
:030000000208945F
:0C089400787FE4F6D8FD7581260208DBB1
:10080000BB010CE58229F582E5833AF583E02250AD
:1008100006E92582F8E622BBFE06E92582F8E222F7
:0D082000E58229F582E5833AF583E4932211
:10082D00EF8DF0A4A8F0CF8CF0A428CE8DF0A42EDF
:02083D00FE2299
:10083F00BC000BBE0029EF8DF084FFADF022E4CC9D
:10084F00F875F008EF2FFFEE33FEEC33FCEE9DEC66
:10085F00984005FCEE9DFE0FD5F0E9E4CEFD22EDAC
:10086F00F8F5F0EE8420D21CFEADF075F008EF2FF6
:10087F00FFED33FD4007985006D5F0F222C398FDE7
:05088F000FD5F0EA2284
:1008A000020A21E493A3F8E493A34003F68001F243
:1008B00008DFF48029E493A3F85407240CC8C33359
:1008C000C4540F4420C8834004F456800146F6DF28
:1008D000E4800B0102040810204080900AE0E47ECE
:1008E000019360BCA3FF543F30E509541FFEE4931D
:1008F000A360010ECF54C025E060A840B8E493A3E4
:10090000FAE493A3F8E493A3C8C582C8CAC583CA0E
:10091000F0A3C8C582C8CAC583CADFE9DEE780BEC6
:010AE4000011
:00000001FF
